{
  "address": "0xe828d8332e278665b4520bfe009953e50d1d5515",
  "abi": [
    {
      "inputs": [],
      "stateMutability": "nonpayable",
      "type": "constructor"
    },
    {
      "inputs": [
        {
          "internalType": "address",
          "name": "token",
          "type": "address"
        }
      ],
      "name": "TokenNotContract",
      "type": "error"
    },
    {
      "inputs": [
        {
          "internalType": "address",
          "name": "token",
          "type": "address"
        }
      ],
      "name": "TokenNotERC20",
      "type": "error"
    },
    {
      "inputs": [
        {
          "internalType": "uint256",
          "name": "length",
          "type": "uint256"
        }
      ],
      "name": "WrongHelpersArrayLength",
      "type": "error"
    },
    {
      "inputs": [],
      "name": "implementation",
      "outputs": [
        {
          "internalType": "address",
          "name": "",
          "type": "address"
        }
      ],
      "stateMutability": "view",
      "type": "function"
    },
    {
      "inputs": [
        {
          "internalType": "address",
          "name": "_dao",
          "type": "address"
        },
        {
          "internalType": "bytes",
          "name": "_data",
          "type": "bytes"
        }
      ],
      "name": "prepareInstallation",
      "outputs": [
        {
          "internalType": "address",
          "name": "plugin",
          "type": "address"
        },
        {
          "components": [
            {
              "internalType": "address[]",
              "name": "helpers",
              "type": "address[]"
            },
            {
              "components": [
                {
                  "internalType": "enum PermissionLib.Operation",
                  "name": "operation",
                  "type": "uint8"
                },
                {
                  "internalType": "address",
                  "name": "where",
                  "type": "address"
                },
                {
                  "internalType": "address",
                  "name": "who",
                  "type": "address"
                },
                {
                  "internalType": "address",
                  "name": "condition",
                  "type": "address"
                },
                {
                  "internalType": "bytes32",
                  "name": "permissionId",
                  "type": "bytes32"
                }
              ],
              "internalType": "struct PermissionLib.MultiTargetPermission[]",
              "name": "permissions",
              "type": "tuple[]"
            }
          ],
          "internalType": "struct IPluginSetup.PreparedSetupData",
          "name": "preparedSetupData",
          "type": "tuple"
        }
      ],
      "stateMutability": "nonpayable",
      "type": "function"
    },
    {
      "inputs": [
        {
          "internalType": "address",
          "name": "_dao",
          "type": "address"
        },
        {
          "components": [
            {
              "internalType": "address",
              "name": "plugin",
              "type": "address"
            },
            {
              "internalType": "address[]",
              "name": "currentHelpers",
              "type": "address[]"
            },
            {
              "internalType": "bytes",
              "name": "data",
              "type": "bytes"
            }
          ],
          "internalType": "struct IPluginSetup.SetupPayload",
          "name": "_payload",
          "type": "tuple"
        }
      ],
      "name": "prepareUninstallation",
      "outputs": [
        {
          "components": [
            {
              "internalType": "enum PermissionLib.Operation",
              "name": "operation",
              "type": "uint8"
            },
            {
              "internalType": "address",
              "name": "where",
              "type": "address"
            },
            {
              "internalType": "address",
              "name": "who",
              "type": "address"
            },
            {
              "internalType": "address",
              "name": "condition",
              "type": "address"
            },
            {
              "internalType": "bytes32",
              "name": "permissionId",
              "type": "bytes32"
            }
          ],
          "internalType": "struct PermissionLib.MultiTargetPermission[]",
          "name": "permissions",
          "type": "tuple[]"
        }
      ],
      "stateMutability": "view",
      "type": "function"
    },
    {
      "inputs": [
        {
          "internalType": "address",
          "name": "_dao",
          "type": "address"
        },
        {
          "internalType": "uint16",
          "name": "_currentBuild",
          "type": "uint16"
        },
        {
          "components": [
            {
              "internalType": "address",
              "name": "plugin",
              "type": "address"
            },
            {
              "internalType": "address[]",
              "name": "currentHelpers",
              "type": "address[]"
            },
            {
              "internalType": "bytes",
              "name": "data",
              "type": "bytes"
            }
          ],
          "internalType": "struct IPluginSetup.SetupPayload",
          "name": "_payload",
          "type": "tuple"
        }
      ],
      "name": "prepareUpdate",
      "outputs": [
        {
          "internalType": "bytes",
          "name": "initData",
          "type": "bytes"
        },
        {
          "components": [
            {
              "internalType": "address[]",
              "name": "helpers",
              "type": "address[]"
            },
            {
              "components": [
                {
                  "internalType": "enum PermissionLib.Operation",
                  "name": "operation",
                  "type": "uint8"
                },
                {
                  "internalType": "address",
                  "name": "where",
                  "type": "address"
                },
                {
                  "internalType": "address",
                  "name": "who",
                  "type": "address"
                },
                {
                  "internalType": "address",
                  "name": "condition",
                  "type": "address"
                },
                {
                  "internalType": "bytes32",
                  "name": "permissionId",
                  "type": "bytes32"
                }
              ],
              "internalType": "struct PermissionLib.MultiTargetPermission[]",
              "name": "permissions",
              "type": "tuple[]"
            }
          ],
          "internalType": "struct IPluginSetup.PreparedSetupData",
          "name": "preparedSetupData",
          "type": "tuple"
        }
      ],
      "stateMutability": "nonpayable",
      "type": "function"
    },
    {
      "inputs": [
        {
          "internalType": "bytes4",
          "name": "_interfaceId",
          "type": "bytes4"
        }
      ],
      "name": "supportsInterface",
      "outputs": [
        {
          "internalType": "bool",
          "name": "",
          "type": "bool"
        }
      ],
      "stateMutability": "view",
      "type": "function"
    }
  ],
  "transactionHash": "0x6939f8c766673331e52e6612548d18a8bd3b20659900800a975ede237788372c",
  "args": [],
  "numDeployments": 1,
  "solcInputHash": "5103af19eb380f14c87ab8dbbc239b55",
  "bytecode": "0x60a060405234801561001057600080fd5b5060405161001d9061004b565b604051809103906000f080158015610039573d6000803e3d6000fd5b506001600160a01b0316608052610058565b6138ec80611b8183390190565b608051611aec6100956000396000818160ad015281816103910152818161048b0152818161067d015281816107a601526108900152611aec6000f3fe60806040523480156200001157600080fd5b50600436106200006f5760003560e01c80639cb0a12411620000565780639cb0a12414620000d8578063a8a9c29e14620000fe578063f10832f1146200012557600080fd5b806301ffc9a714620000745780635c60da1b14620000a0575b600080fd5b6200008b6200008536600462000cad565b6200014c565b60405190151581526020015b60405180910390f35b6040516001600160a01b037f000000000000000000000000000000000000000000000000000000000000000016815260200162000097565b620000ef620000e936600462000d0b565b6200019d565b60405162000097919062000dd3565b620001156200010f36600462000e20565b6200061a565b6040516200009792919062000f71565b6200013c6200013636600462000fa3565b62000642565b604051620000979291906200102f565b60006001600160e01b031982167f99718b500000000000000000000000000000000000000000000000000000000014806200019757506301ffc9a760e01b6001600160e01b03198316145b92915050565b60606000620001b060208401846200105b565b9150508015620001f3576040517ff14c61fc0000000000000000000000000000000000000000000000000000000081526004810182905260240160405180910390fd5b60006200020460208501856200105b565b6000818110620002185762000218620010cd565b90506020020160208101906200022f9190620010e3565b905060006200023e8262000a15565b9050600081600081518110620002585762000258620010cd565b60200260200101518015620002875750816001815181106200027e576200027e620010cd565b60200260200101515b8015620002af575081600281518110620002a557620002a5620010cd565b6020026020010151155b905080620002bf576003620002c2565b60045b60ff1667ffffffffffffffff811115620002e057620002e062001103565b6040519080825280602002602001820160405280156200033b57816020015b6040805160a081018252600080825260208083018290529282018190526060820181905260808201528252600019909201910181620002ff5790505b506040805160a08101909152600181529095506020808201906200036290890189620010e3565b6001600160a01b03168152602001886001600160a01b0316815260200160006001600160a01b031681526020017f00000000000000000000000000000000000000000000000000000000000000006001600160a01b0316631befc4056040518163ffffffff1660e01b8152600401602060405180830381865afa158015620003ee573d6000803e3d6000fd5b505050506040513d601f19601f8201168201806040525081019062000414919062001119565b815250856000815181106200042d576200042d620010cd565b60209081029190910101526040805160a0810190915280600181526020908101906200045c90890189620010e3565b6001600160a01b03168152602001886001600160a01b0316815260200160006001600160a01b031681526020017f00000000000000000000000000000000000000000000000000000000000000006001600160a01b031663c9c4bfca6040518163ffffffff1660e01b8152600401602060405180830381865afa158015620004e8573d6000803e3d6000fd5b505050506040513d601f19601f820116820180604052508101906200050e919062001119565b81525085600181518110620005275762000527620010cd565b60209081029190910101526040805160a081019091528060018152602001886001600160a01b03168152602001876000016020810190620005699190620010e3565b6001600160a01b0316815260200160006001600160a01b03168152602001886001600160a01b0316630729d0546040518163ffffffff1660e01b8152600401602060405180830381865afa158015620005c6573d6000803e3d6000fd5b505050506040513d601f19601f82011682018060405250810190620005ec919062001119565b81525085600281518110620006055762000605620010cd565b60200260200101819052505050505092915050565b60606200063a604051806040016040528060608152602001606081525090565b935093915050565b600062000662604051806040016040528060608152602001606081525090565b600080620006738587018762001183565b91509150620007087f000000000000000000000000000000000000000000000000000000000000000063b2673b0760e01b898585604051602401620006bb9392919062001246565b60408051601f198184030181529190526020810180517bffffffffffffffffffffffffffffffffffffffffffffffffffffffff166001600160e01b03199093169290921790915262000aa7565b6040805160038082526080820190925291955060009190816020015b6040805160a08101825260008082526020808301829052928201819052606082018190526080820152825260001990920191018162000724579050506040805160a081019091529091508060008152602001866001600160a01b03168152602001896001600160a01b0316815260200160006001600160a01b031681526020017f00000000000000000000000000000000000000000000000000000000000000006001600160a01b0316631befc4056040518163ffffffff1660e01b8152600401602060405180830381865afa15801562000803573d6000803e3d6000fd5b505050506040513d601f19601f8201168201806040525081019062000829919062001119565b81525081600081518110620008425762000842620010cd565b60209081029190910101526040805160a081019091528060008152602001866001600160a01b03168152602001896001600160a01b0316815260200160006001600160a01b031681526020017f00000000000000000000000000000000000000000000000000000000000000006001600160a01b031663c9c4bfca6040518163ffffffff1660e01b8152600401602060405180830381865afa158015620008ed573d6000803e3d6000fd5b505050506040513d601f19601f8201168201806040525081019062000913919062001119565b815250816001815181106200092c576200092c620010cd565b60209081029190910101526040805160a081019091528060008152602001896001600160a01b03168152602001866001600160a01b0316815260200160006001600160a01b03168152602001896001600160a01b0316630729d0546040518163ffffffff1660e01b8152600401602060405180830381865afa158015620009b7573d6000803e3d6000fd5b505050506040513d601f19601f82011682018060405250810190620009dd919062001119565b81525081600281518110620009f657620009f6620010cd565b6020026020010181905250808460200181905250505050935093915050565b60408051600180825281830190925260609160009190602080830190803683370190505090507fb4ee9539000000000000000000000000000000000000000000000000000000008160008151811062000a725762000a72620010cd565b6001600160e01b03199092166020928302919091019091015262000aa06001600160a01b0384168262000ab5565b9392505050565b600062000aa0838362000b8b565b60606000825167ffffffffffffffff81111562000ad65762000ad662001103565b60405190808252806020026020018201604052801562000b00578160200160208202803683370190505b50905062000b0e8462000bc7565b1562000aa05760005b835181101562000b835762000b498585838151811062000b3b5762000b3b620010cd565b602002602001015162000bff565b82828151811062000b5e5762000b5e620010cd565b911515602092830291909101909101528062000b7a81620012bc565b91505062000b17565b509392505050565b6000828260405162000b9d9062000c9f565b62000baa929190620012e5565b604051809103906000f08015801562000b83573d6000803e3d6000fd5b600062000bdc826301ffc9a760e01b62000bff565b801562000197575062000bf8826001600160e01b031962000bff565b1592915050565b604080516001600160e01b03198316602480830191909152825180830390910181526044909101909152602080820180517bffffffffffffffffffffffffffffffffffffffffffffffffffffffff166301ffc9a760e01b178152825160009392849283928392918391908a617530fa92503d9150600051905082801562000c87575060208210155b801562000c945750600081115b979650505050505050565b6107ad806200130a83390190565b60006020828403121562000cc057600080fd5b81356001600160e01b03198116811462000aa057600080fd5b6001600160a01b038116811462000cef57600080fd5b50565b60006060828403121562000d0557600080fd5b50919050565b6000806040838503121562000d1f57600080fd5b823562000d2c8162000cd9565b9150602083013567ffffffffffffffff81111562000d4957600080fd5b62000d578582860162000cf2565b9150509250929050565b6003811062000cef57634e487b7160e01b600052602160045260246000fd5b6000815162000d8f8162000d61565b8352506020818101516001600160a01b0390811691840191909152604080830151821690840152606080830151909116908301526080908101519082015260a00190565b6020808252825182820181905260009190848201906040850190845b8181101562000e145762000e0583855162000d80565b93850193925060010162000def565b50909695505050505050565b60008060006060848603121562000e3657600080fd5b833562000e438162000cd9565b9250602084013561ffff8116811462000e5b57600080fd5b9150604084013567ffffffffffffffff81111562000e7857600080fd5b62000e868682870162000cf2565b9150509250925092565b6000815180845260005b8181101562000eb85760208185018101518683018201520162000e9a565b506000602082860101526020601f19601f83011685010191505092915050565b805160408084528151908401819052600091602091908201906060860190845b8181101562000f1f5783516001600160a01b03168352928401929184019160010162000ef8565b50508483015186820387850152805180835290840192506000918401905b8083101562000f665762000f5382855162000d80565b9150848401935060018301925062000f3d565b509695505050505050565b60408152600062000f86604083018562000e90565b828103602084015262000f9a818562000ed8565b95945050505050565b60008060006040848603121562000fb957600080fd5b833562000fc68162000cd9565b9250602084013567ffffffffffffffff8082111562000fe457600080fd5b818601915086601f83011262000ff957600080fd5b8135818111156200100957600080fd5b8760208285010111156200101c57600080fd5b6020830194508093505050509250925092565b6001600160a01b038316815260406020820152600062001053604083018462000ed8565b949350505050565b60008083357fffffffffffffffffffffffffffffffffffffffffffffffffffffffffffffffe18436030181126200109157600080fd5b83018035915067ffffffffffffffff821115620010ad57600080fd5b6020019150600581901b3603821315620010c657600080fd5b9250929050565b634e487b7160e01b600052603260045260246000fd5b600060208284031215620010f657600080fd5b813562000aa08162000cd9565b634e487b7160e01b600052604160045260246000fd5b6000602082840312156200112c57600080fd5b5051919050565b8035600381106200114357600080fd5b919050565b803563ffffffff811681146200114357600080fd5b803567ffffffffffffffff811681146200114357600080fd5b8035620011438162000cd9565b60008082840360c08112156200119857600080fd5b60a0811215620011a757600080fd5b5060405160a0810181811067ffffffffffffffff82111715620011da57634e487b7160e01b600052604160045260246000fd5b604052620011e88462001133565b8152620011f86020850162001148565b60208201526200120b6040850162001148565b60408201526200121e606085016200115d565b60608201526080848101359082015291506200123d60a0840162001176565b90509250929050565b6001600160a01b038481168252835160e083019190620012668162000d61565b80602085015250602085015163ffffffff8082166040860152806040880151166060860152505067ffffffffffffffff6060860151166080840152608085015160a084015280841660c084015250949350505050565b60006000198203620012de57634e487b7160e01b600052601160045260246000fd5b5060010190565b6001600160a01b038316815260406020820152600062001053604083018462000e9056fe60806040526040516107ad3803806107ad83398101604081905261002291610319565b61002e82826000610035565b5050610436565b61003e8361006b565b60008251118061004b5750805b156100665761006483836100ab60201b6100291760201c565b505b505050565b610074816100d7565b6040516001600160a01b038216907fbc7cd75a20ee27fd9adebab32041f755214dbc6bffa90cc0225b39da2e5c2d3b90600090a250565b60606100d08383604051806060016040528060278152602001610786602791396101a9565b9392505050565b6100ea8161022260201b6100551760201c565b6101515760405162461bcd60e51b815260206004820152602d60248201527f455243313936373a206e657720696d706c656d656e746174696f6e206973206e60448201526c1bdd08184818dbdb9d1c9858dd609a1b60648201526084015b60405180910390fd5b806101887f360894a13ba1a3210667c828492db98dca3e2076cc3735a920a3ca505d382bbc60001b61023160201b6100711760201c565b80546001600160a01b0319166001600160a01b039290921691909117905550565b6060600080856001600160a01b0316856040516101c691906103e7565b600060405180830381855af49150503d8060008114610201576040519150601f19603f3d011682016040523d82523d6000602084013e610206565b606091505b50909250905061021886838387610234565b9695505050505050565b6001600160a01b03163b151590565b90565b606083156102a357825160000361029c576001600160a01b0385163b61029c5760405162461bcd60e51b815260206004820152601d60248201527f416464726573733a2063616c6c20746f206e6f6e2d636f6e74726163740000006044820152606401610148565b50816102ad565b6102ad83836102b5565b949350505050565b8151156102c55781518083602001fd5b8060405162461bcd60e51b81526004016101489190610403565b634e487b7160e01b600052604160045260246000fd5b60005b838110156103105781810151838201526020016102f8565b50506000910152565b6000806040838503121561032c57600080fd5b82516001600160a01b038116811461034357600080fd5b60208401519092506001600160401b038082111561036057600080fd5b818501915085601f83011261037457600080fd5b815181811115610386576103866102df565b604051601f8201601f19908116603f011681019083821181831017156103ae576103ae6102df565b816040528281528860208487010111156103c757600080fd5b6103d88360208301602088016102f5565b80955050505050509250929050565b600082516103f98184602087016102f5565b9190910192915050565b60208152600082518060208401526104228160408501602087016102f5565b601f01601f19169190910160400192915050565b610341806104456000396000f3fe60806040523661001357610011610017565b005b6100115b610027610022610074565b6100b9565b565b606061004e83836040518060600160405280602781526020016102e5602791396100dd565b9392505050565b73ffffffffffffffffffffffffffffffffffffffff163b151590565b90565b60006100b47f360894a13ba1a3210667c828492db98dca3e2076cc3735a920a3ca505d382bbc5473ffffffffffffffffffffffffffffffffffffffff1690565b905090565b3660008037600080366000845af43d6000803e8080156100d8573d6000f35b3d6000fd5b60606000808573ffffffffffffffffffffffffffffffffffffffff16856040516101079190610277565b600060405180830381855af49150503d8060008114610142576040519150601f19603f3d011682016040523d82523d6000602084013e610147565b606091505b509150915061015886838387610162565b9695505050505050565b606083156101fd5782516000036101f65773ffffffffffffffffffffffffffffffffffffffff85163b6101f6576040517f08c379a000000000000000000000000000000000000000000000000000000000815260206004820152601d60248201527f416464726573733a2063616c6c20746f206e6f6e2d636f6e747261637400000060448201526064015b60405180910390fd5b5081610207565b610207838361020f565b949350505050565b81511561021f5781518083602001fd5b806040517f08c379a00000000000000000000000000000000000000000000000000000000081526004016101ed9190610293565b60005b8381101561026e578181015183820152602001610256565b50506000910152565b60008251610289818460208701610253565b9190910192915050565b60208152600082518060208401526102b2816040850160208701610253565b601f017fffffffffffffffffffffffffffffffffffffffffffffffffffffffffffffffe016919091016040019291505056fe416464726573733a206c6f772d6c6576656c2064656c65676174652063616c6c206661696c6564a2646970667358221220a7c6f2fcb78c7b4c40d8fd8b3b79a2770d3af4a9e7da56689bfa5ce2c1ce5a2164736f6c63430008110033416464726573733a206c6f772d6c6576656c2064656c65676174652063616c6c206661696c6564a2646970667358221220daf15c456a2b66c77cb0f2a6fce96a82e66882cc64c13884219083c2f5a7a38064736f6c6343000811003360a0604052306080523480156200001557600080fd5b506200002062000026565b620000e8565b600054610100900460ff1615620000935760405162461bcd60e51b815260206004820152602760248201527f496e697469616c697a61626c653a20636f6e747261637420697320696e697469604482015266616c697a696e6760c81b606482015260840160405180910390fd5b60005460ff9081161015620000e6576000805460ff191660ff9081179091556040519081527f7f26b83ff96e1f2b6a682f133852f6798a09c465da95921460cefb38474024989060200160405180910390a15b565b6080516137cc62000120600039600081816107b70152818161085201528181610959015281816109ef0152610ae601526137cc6000f3fe6080604052600436106101cd5760003560e01c80637c36e8e8116100f7578063c9c4bfca11610095578063da35c66411610064578063da35c664146105c6578063e28c3b19146105db578063f60046b2146105fa578063fe0d94c11461061057600080fd5b8063c9c4bfca14610532578063cc63604a14610566578063ce6366c414610586578063cf131149146105a657600080fd5b80639cba3021116100d15780639cba3021146104a0578063a230c524146104c0578063b2673b07146104e0578063c7f758a81461050057600080fd5b80637c36e8e8146104075780638a4b00f814610428578063970601d81461044857600080fd5b80633659cfe61161016f57806352d1902d1161013e57806352d1902d1461037c578063536f9f421461039157806356715761146103b15780635c60da1b146103f257600080fd5b80633659cfe6146103035780634162169f1461032357806341de6830146103555780634f1ef2861461036957600080fd5b80630dfb278e116101ab5780630dfb278e1461025d57806317d1b4041461027f5780631befc4051461029f57806323d07188146102e157600080fd5b806301ffc9a7146101d2578063054fd2c2146102075780630de218561461023d575b600080fd5b3480156101de57600080fd5b506101f26101ed3660046129b0565b610630565b60405190151581526020015b60405180910390f35b34801561021357600080fd5b506101605465010000000000900463ffffffff165b60405163ffffffff90911681526020016101fe565b34801561024957600080fd5b506101f26102583660046129da565b6106a8565b34801561026957600080fd5b5061027d610278366004612a0b565b61074b565b005b34801561028b57600080fd5b506101f261029a366004612a50565b610796565b3480156102ab57600080fd5b506102d37fbba35d41610b7d25c8e486006535c76bd423091563e694d206ae3d71ce949fe581565b6040519081526020016101fe565b3480156102ed57600080fd5b506101605460ff165b6040516101fe9190612ab4565b34801561030f57600080fd5b5061027d61031e366004612ac7565b6107ad565b34801561032f57600080fd5b5060c9546001600160a01b03165b6040516001600160a01b0390911681526020016101fe565b34801561036157600080fd5b5060006102f6565b61027d610377366004612b53565b61094f565b34801561038857600080fd5b506102d3610ad9565b34801561039d57600080fd5b506102d36103ac3660046129da565b610b9f565b3480156103bd57600080fd5b50610160546901000000000000000000900467ffffffffffffffff1660405167ffffffffffffffff90911681526020016101fe565b3480156103fe57600080fd5b5061033d610c27565b34801561041357600080fd5b5061016054610100900463ffffffff16610228565b34801561043457600080fd5b506101f26104433660046129da565b610c5f565b34801561045457600080fd5b50610493610463366004612be6565b600082815261015f602090815260408083206001600160a01b038516845260060190915290205460ff1692915050565b6040516101fe9190612c2a565b3480156104ac57600080fd5b506102d36104bb366004612cbe565b610c9f565b3480156104cc57600080fd5b506101f26104db366004612ac7565b610fdd565b3480156104ec57600080fd5b5061027d6104fb366004612da3565b61105d565b34801561050c57600080fd5b5061052061051b3660046129da565b6111d7565b6040516101fe96959493929190612ebb565b34801561053e57600080fd5b506102d37f821b6e3a557148015a918c89e5d092e878a69854a2d1a410635f771bd5a8a3f581565b34801561057257600080fd5b506101f26105813660046129da565b61143f565b34801561059257600080fd5b5061027d6105a1366004612f73565b61144a565b3480156105b257600080fd5b506101f26105c13660046129da565b61149e565b3480156105d257600080fd5b506102d3611500565b3480156105e757600080fd5b50610191546001600160a01b031661033d565b34801561060657600080fd5b50610161546102d3565b34801561061c57600080fd5b5061027d61062b3660046129da565b61150c565b60006001600160e01b031982167f50eb001e00000000000000000000000000000000000000000000000000000000148061069357506001600160e01b031982167fa230c52400000000000000000000000000000000000000000000000000000000145b806106a257506106a282611557565b92915050565b600081815261015f60205260408120600381015460048201546001830154849291906106e490600160a81b900467ffffffffffffffff16610b9f565b6106ee9190612fbe565b6106f89190612fbe565b6001830154909150610716908290610100900463ffffffff16612fd1565b6004830154600184015461073890610100900463ffffffff16620f4240612fbe565b6107429190612fd1565b11949350505050565b60c9547fbba35d41610b7d25c8e486006535c76bd423091563e694d206ae3d71ce949fe590610789906001600160a01b031630335b846000366115c9565b610792826116b7565b5050565b60006107a38484846118ba565b90505b9392505050565b6001600160a01b037f00000000000000000000000000000000000000000000000000000000000000001630036108505760405162461bcd60e51b815260206004820152602c60248201527f46756e6374696f6e206d7573742062652063616c6c6564207468726f7567682060448201527f64656c656761746563616c6c000000000000000000000000000000000000000060648201526084015b60405180910390fd5b7f00000000000000000000000000000000000000000000000000000000000000006001600160a01b03166108ab7f360894a13ba1a3210667c828492db98dca3e2076cc3735a920a3ca505d382bbc546001600160a01b031690565b6001600160a01b0316146109275760405162461bcd60e51b815260206004820152602c60248201527f46756e6374696f6e206d7573742062652063616c6c6564207468726f7567682060448201527f6163746976652070726f787900000000000000000000000000000000000000006064820152608401610847565b61093081611a0e565b6040805160008082526020820190925261094c91839190611a47565b50565b6001600160a01b037f00000000000000000000000000000000000000000000000000000000000000001630036109ed5760405162461bcd60e51b815260206004820152602c60248201527f46756e6374696f6e206d7573742062652063616c6c6564207468726f7567682060448201527f64656c656761746563616c6c00000000000000000000000000000000000000006064820152608401610847565b7f00000000000000000000000000000000000000000000000000000000000000006001600160a01b0316610a487f360894a13ba1a3210667c828492db98dca3e2076cc3735a920a3ca505d382bbc546001600160a01b031690565b6001600160a01b031614610ac45760405162461bcd60e51b815260206004820152602c60248201527f46756e6374696f6e206d7573742062652063616c6c6564207468726f7567682060448201527f6163746976652070726f787900000000000000000000000000000000000000006064820152608401610847565b610acd82611a0e565b61079282826001611a47565b6000306001600160a01b037f00000000000000000000000000000000000000000000000000000000000000001614610b795760405162461bcd60e51b815260206004820152603860248201527f555550535570677261646561626c653a206d757374206e6f742062652063616c60448201527f6c6564207468726f7567682064656c656761746563616c6c00000000000000006064820152608401610847565b507f360894a13ba1a3210667c828492db98dca3e2076cc3735a920a3ca505d382bbc5b90565b610191546040517f8fca0d41000000000000000000000000000000000000000000000000000000008152600481018390526000916001600160a01b031690638fca0d4190602401602060405180830381865afa158015610c03573d6000803e3d6000fd5b505050506040513d601f19601f820116820180604052508101906106a29190612fe8565b6000610c5a7f360894a13ba1a3210667c828492db98dca3e2076cc3735a920a3ca505d382bbc546001600160a01b031690565b905090565b600081815261015f602052604081206002810154600382015460058301546004840154610c8c9190613001565b610c969190613001565b10159392505050565b6000600019430181610cb082610b9f565b905080600003610cec576040517f7c176b7400000000000000000000000000000000000000000000000000000000815260040160405180910390fd5b61016154610191546001600160a01b0316632c994dc8336040516001600160e01b031960e084901b1681526001600160a01b03909116600482015260248101869052604401602060405180830381865afa158015610d4e573d6000803e3d6000fd5b505050506040513d601f19601f82011682018060405250810190610d729190612fe8565b1015610dac576040517feab99344000000000000000000000000000000000000000000000000000000008152336004820152602401610847565b610dbc338d8d8a8a8f8f8f611bec565b600081815261015f60205260409020909350610dd88888611c52565b6001830180547fffffffffffffffffffffff00000000000000000000000000000000ffffffffff166d010000000000000000000000000067ffffffffffffffff938416027fffffffffffffffffffffffffffffffffffffff0000000000000000ffffffffff1617650100000000009390921692909202179055610e5a83611d93565b60018201805467ffffffffffffffff92909216600160a81b027fffffff0000000000000000ffffffffffffffffffffffffffffffffffffffffff909216919091179055610eaa6101605460ff1690565b60018083018054909160ff1990911690836002811115610ecc57610ecc612a8e565b021790555061016054610100900463ffffffff166001820180547fffffffffffffffffffffffffffffffffffffffffffffffffffffff00000000ff1661010063ffffffff9384160217905561016054610f369184916501000000000090041663ffffffff16611e17565b60028201558815610f4957600881018990555b60005b8a811015610fa857816007018c8c83818110610f6a57610f6a613014565b9050602002810190610f7c919061302a565b815460018101835560009283526020909220909160030201610f9e82826130c4565b5050600101610f4c565b506000866003811115610fbd57610fbd612a8e565b14610fcd57610fcd84878761144a565b5050509998505050505050505050565b6101915460405163059329b960e31b81526001600160a01b0383811660048301524360248301526000928392911690632c994dc890604401602060405180830381865afa158015611032573d6000803e3d6000fd5b505050506040513d601f19601f820116820180604052508101906110569190612fe8565b1192915050565b600054610100900460ff161580801561107d5750600054600160ff909116105b806110975750303b158015611097575060005460ff166001145b6111095760405162461bcd60e51b815260206004820152602e60248201527f496e697469616c697a61626c653a20636f6e747261637420697320616c72656160448201527f647920696e697469616c697a65640000000000000000000000000000000000006064820152608401610847565b6000805460ff19166001179055801561112c576000805461ff0019166101001790555b6111368484611ea7565b610191805473ffffffffffffffffffffffffffffffffffffffff19166001600160a01b0384169081179091556040517f3f1ec22954d444cb99f80a1989ac8f631616b8a575a89379e514c0f7f748c93390600090a280156111d1576000805461ff0019169055604051600181527f7f26b83ff96e1f2b6a682f133852f6798a09c465da95921460cefb38474024989060200160405180910390a15b50505050565b6040805160c081018252600080825260208201819052918101829052606081018290526080810182905260a08101829052819061122e60405180606001604052806000815260200160008152602001600081525090565b600085815261015f602052604081206060919061124a81611f36565b81546040805160c08101909152600184018054939a5060ff928316995090929091839116600281111561127f5761127f612a8e565b600281111561129057611290612a8e565b8152815463ffffffff61010082041660208084019190915267ffffffffffffffff65010000000000830481166040808601919091526d010000000000000000000000000084048216606080870191909152600160a81b909404909116608085015260019094015460a090930192909252825190810183526003850154815260048501548183015260058501548184015260078501805484518185028101850190955280855294995090975091929060009084015b82821015611428576000848152602090819020604080516060810182526003860290920180546001600160a01b03168352600181015493830193909352600283018054929392918401916113979061304a565b80601f01602080910402602001604051908101604052809291908181526020018280546113c39061304a565b80156114105780601f106113e557610100808354040283529160200191611410565b820191906000526020600020905b8154815290600101906020018083116113f357829003601f168201915b50505050508152505081526020019060010190611344565b505050509250806008015491505091939550919395565b60006106a282611fa4565b336114568482856118ba565b611492578381846040517f70b4b254000000000000000000000000000000000000000000000000000000008152600401610847939291906131f5565b6111d18484838561204c565b600081815261015f60205260408120600581015460018201546114cc9190610100900463ffffffff16612fd1565b600482015460018301546114ee90610100900463ffffffff16620f4240612fbe565b6114f89190612fd1565b119392505050565b6000610c5a61012d5490565b61151581611fa4565b61154e576040517f9fefd0f100000000000000000000000000000000000000000000000000000000815260048101829052602401610847565b61094c816122da565b60006001600160e01b031982167f8678b01e0000000000000000000000000000000000000000000000000000000014806115ba57506001600160e01b031982167f4d19145e00000000000000000000000000000000000000000000000000000000145b806106a257506106a282612442565b6040517ffdef91060000000000000000000000000000000000000000000000000000000081526001600160a01b0387169063fdef910690611616908890889088908890889060040161324b565b602060405180830381865afa158015611633573d6000803e3d6000fd5b505050506040513d601f19601f820116820180604052508101906116579190613289565b6116af576040517f32dbe3b40000000000000000000000000000000000000000000000000000000081526001600160a01b03808816600483015280871660248301528516604482015260648101849052608401610847565b505050505050565b6116c56001620f4240612fbe565b6116d560408301602084016132b8565b63ffffffff161115611740576116ef6001620f4240612fbe565b6116ff60408301602084016132b8565b6040517fcc80c195000000000000000000000000000000000000000000000000000000008152600481019290925263ffffffff166024820152604401610847565b620f424061175460608301604084016132b8565b63ffffffff16111561177457620f42406116ff60608301604084016132b8565b610e1061178760808301606084016132d5565b67ffffffffffffffff1610156117f057610e106117aa60808301606084016132d5565b6040517fc51033ee00000000000000000000000000000000000000000000000000000000815267ffffffffffffffff928316600482015291166024820152604401610847565b6301e1338061180560808301606084016132d5565b67ffffffffffffffff16111561182a576301e133806117aa60808301606084016132d5565b80610160611838828261330c565b507fa8a18d06ddd19f24a872740e3d364c86f62be25f7154525dda18ef07fda46f3e9050611869602083018361341f565b61187960408401602085016132b8565b61188960608501604086016132b8565b61189960808601606087016132d5565b85608001356040516118af95949392919061343c565b60405180910390a150565b600083815261015f602052604081206118d281611f36565b6118e05760009150506107a6565b60008360038111156118f4576118f4612a8e565b036119035760009150506107a6565b61019154600182015460405163059329b960e31b81526001600160a01b038781166004830152600160a81b90920467ffffffffffffffff166024820152911690632c994dc890604401602060405180830381865afa158015611969573d6000803e3d6000fd5b505050506040513d601f19601f8201168201806040525081019061198d9190612fe8565b60000361199e5760009150506107a6565b6001600160a01b038416600090815260068201602052604081205460ff1660038111156119cd576119cd612a8e565b141580156119f457506002600182015460ff1660028111156119f1576119f1612a8e565b14155b15611a035760009150506107a6565b506001949350505050565b60c9547f821b6e3a557148015a918c89e5d092e878a69854a2d1a410635f771bd5a8a3f590610792906001600160a01b03163033610780565b7f4910fdfa16fed3260ed0e7147f7cc6da11a60208b5b9406d12a635614ffd91435460ff1615611a7f57611a7a83612480565b505050565b826001600160a01b03166352d1902d6040518163ffffffff1660e01b8152600401602060405180830381865afa925050508015611ad9575060408051601f3d908101601f19168201909252611ad691810190612fe8565b60015b611b4b5760405162461bcd60e51b815260206004820152602e60248201527f45524331393637557067726164653a206e657720696d706c656d656e7461746960448201527f6f6e206973206e6f7420555550530000000000000000000000000000000000006064820152608401610847565b7f360894a13ba1a3210667c828492db98dca3e2076cc3735a920a3ca505d382bbc8114611be05760405162461bcd60e51b815260206004820152602960248201527f45524331393637557067726164653a20756e737570706f727465642070726f7860448201527f6961626c655555494400000000000000000000000000000000000000000000006064820152608401610847565b50611a7a83838361254b565b6000611bf6612570565b9050886001600160a01b0316817fa6c1f8f4276dc3f243459e13b557c84e8f4e90b2e09070bad5f6909cee687c9288888c8c8a8a8a604051611c3e9796959493929190613478565b60405180910390a398975050505050505050565b6000806000611c6042611d93565b90508467ffffffffffffffff16600003611c7c57809250611ce1565b8492508067ffffffffffffffff168367ffffffffffffffff161015611ce1576040517f4cc9c0f400000000000000000000000000000000000000000000000000000000815267ffffffffffffffff808316600483015284166024820152604401610847565b61016054600090611d09906901000000000000000000900467ffffffffffffffff1685613587565b90508467ffffffffffffffff16600003611d2557809250611d8a565b8492508067ffffffffffffffff168367ffffffffffffffff161015611d8a576040517f4cc9c0f400000000000000000000000000000000000000000000000000000000815267ffffffffffffffff808316600483015284166024820152604401610847565b50509250929050565b600067ffffffffffffffff821115611e135760405162461bcd60e51b815260206004820152602660248201527f53616665436173743a2076616c756520646f65736e27742066697420696e203660448201527f34206269747300000000000000000000000000000000000000000000000000006064820152608401610847565b5090565b6000620f4240821115611e62576040517fcc80c195000000000000000000000000000000000000000000000000000000008152620f4240600482015260248101839052604401610847565b611e6c8284612fd1565b92506000611e7d620f4240856135be565b9050611e8c620f4240856135d2565b91508015611ea057611e9d826135e6565b91505b5092915050565b600054610100900460ff16611f245760405162461bcd60e51b815260206004820152602b60248201527f496e697469616c697a61626c653a20636f6e7472616374206973206e6f74206960448201527f6e697469616c697a696e670000000000000000000000000000000000000000006064820152608401610847565b611f2d8261258b565b610792816116b7565b600080611f4242611d93565b600184015490915067ffffffffffffffff808316650100000000009092041611801590611f915750600183015467ffffffffffffffff6d01000000000000000000000000009091048116908216105b80156107a6575050905460ff1615919050565b600081815261015f60205260408120805460ff1615611fc65750600092915050565b611fcf81611f36565b156120175760018082015460ff166002811115611fee57611fee612a8e565b14611ffc5750600092915050565b612005836106a8565b6120125750600092915050565b61202d565b6120208361149e565b61202d5750600092915050565b61203683610c5f565b6120435750600092915050565b50600192915050565b600084815261015f6020526040808220610191546001820154925163059329b960e31b81526001600160a01b038781166004830152600160a81b90940467ffffffffffffffff1660248201529193921690632c994dc890604401602060405180830381865afa1580156120c3573d6000803e3d6000fd5b505050506040513d601f19601f820116820180604052508101906120e79190612fe8565b6001600160a01b038516600090815260068401602052604090205490915060ff16600281600381111561211c5761211c612a8e565b0361213b576004830154612131908390612fbe565b600484015561219d565b600381600381111561214f5761214f612a8e565b0361216e576005830154612164908390612fbe565b600584015561219d565b600181600381111561218257612182612a8e565b0361219d576003830154612197908390612fbe565b60038401555b60028660038111156121b1576121b1612a8e565b036121d05760048301546121c6908390613001565b6004840155612232565b60038660038111156121e4576121e4612a8e565b036122035760058301546121f9908390613001565b6005840155612232565b600186600381111561221757612217612a8e565b0361223257600383015461222c908390613001565b60038401555b6001600160a01b03851660009081526006840160205260409020805487919060ff1916600183600381111561226957612269612a8e565b0217905550846001600160a01b0316877fb83d25c6a5d258561330739951487acb4bd09ba5190b5d32c4f261817d90679288856040516122aa929190613600565b60405180910390a38380156122c357506122c387611fa4565b156122d1576122d1876122da565b50505050505050565b600081815261015f60205260409020805460ff19166001179055611a7a61230960c9546001600160a01b031690565b8261015f6000858152602001908152602001600020600701805480602002602001604051908101604052809291908181526020016000905b82821015612425576000848152602090819020604080516060810182526003860290920180546001600160a01b03168352600181015493830193909352600283018054929392918401916123949061304a565b80601f01602080910402602001604051908101604052809291908181526020018280546123c09061304a565b801561240d5780601f106123e25761010080835404028352916020019161240d565b820191906000526020600020905b8154815290600101906020018083116123f057829003601f168201915b50505050508152505081526020019060010190612341565b505050600086815261015f60205260409020600801549050612611565b60006001600160e01b031982167fda35c6640000000000000000000000000000000000000000000000000000000014806106a257506106a2826126e0565b6001600160a01b0381163b6124fd5760405162461bcd60e51b815260206004820152602d60248201527f455243313936373a206e657720696d706c656d656e746174696f6e206973206e60448201527f6f74206120636f6e7472616374000000000000000000000000000000000000006064820152608401610847565b7f360894a13ba1a3210667c828492db98dca3e2076cc3735a920a3ca505d382bbc805473ffffffffffffffffffffffffffffffffffffffff19166001600160a01b0392909216919091179055565b6125548361277b565b6000825111806125615750805b15611a7a576111d183836127bb565b600061257a611500565b9050610b9c61012d80546001019055565b600054610100900460ff166126085760405162461bcd60e51b815260206004820152602b60248201527f496e697469616c697a61626c653a20636f6e7472616374206973206e6f74206960448201527f6e697469616c697a696e670000000000000000000000000000000000000000006064820152608401610847565b61094c816128c6565b6040517fc71bf3240000000000000000000000000000000000000000000000000000000081526060906000906001600160a01b0387169063c71bf324906126609088908890889060040161361b565b6000604051808303816000875af115801561267f573d6000803e3d6000fd5b505050506040513d6000823e601f3d908101601f191682016040526126a79190810190613644565b604051919350915085907f712ae1383f79ac853f8d882153778e0260ef8f03b504e2866e0593e04d2b291f90600090a294509492505050565b60006001600160e01b031982167f41de683000000000000000000000000000000000000000000000000000000000148061274357506001600160e01b031982167f52d1902d00000000000000000000000000000000000000000000000000000000145b806106a257507f01ffc9a7000000000000000000000000000000000000000000000000000000006001600160e01b03198316146106a2565b61278481612480565b6040516001600160a01b038216907fbc7cd75a20ee27fd9adebab32041f755214dbc6bffa90cc0225b39da2e5c2d3b90600090a250565b60606001600160a01b0383163b61283a5760405162461bcd60e51b815260206004820152602660248201527f416464726573733a2064656c65676174652063616c6c20746f206e6f6e2d636f60448201527f6e747261637400000000000000000000000000000000000000000000000000006064820152608401610847565b600080846001600160a01b031684604051612855919061374a565b600060405180830381855af49150503d8060008114612890576040519150601f19603f3d011682016040523d82523d6000602084013e612895565b606091505b50915091506128bd828260405180606001604052806027815260200161377060279139612972565b95945050505050565b600054610100900460ff166129435760405162461bcd60e51b815260206004820152602b60248201527f496e697469616c697a61626c653a20636f6e7472616374206973206e6f74206960448201527f6e697469616c697a696e670000000000000000000000000000000000000000006064820152608401610847565b60c9805473ffffffffffffffffffffffffffffffffffffffff19166001600160a01b0392909216919091179055565b606083156129815750816107a6565b6107a683838151156129965781518083602001fd5b8060405162461bcd60e51b8152600401610847919061375c565b6000602082840312156129c257600080fd5b81356001600160e01b0319811681146107a657600080fd5b6000602082840312156129ec57600080fd5b5035919050565b600060a08284031215612a0557600080fd5b50919050565b600060a08284031215612a1d57600080fd5b6107a683836129f3565b6001600160a01b038116811461094c57600080fd5b803560048110612a4b57600080fd5b919050565b600080600060608486031215612a6557600080fd5b833592506020840135612a7781612a27565b9150612a8560408501612a3c565b90509250925092565b634e487b7160e01b600052602160045260246000fd5b6003811061094c5761094c612a8e565b60208101612ac183612aa4565b91905290565b600060208284031215612ad957600080fd5b81356107a681612a27565b634e487b7160e01b600052604160045260246000fd5b604051601f8201601f1916810167ffffffffffffffff81118282101715612b2357612b23612ae4565b604052919050565b600067ffffffffffffffff821115612b4557612b45612ae4565b50601f01601f191660200190565b60008060408385031215612b6657600080fd5b8235612b7181612a27565b9150602083013567ffffffffffffffff811115612b8d57600080fd5b8301601f81018513612b9e57600080fd5b8035612bb1612bac82612b2b565b612afa565b818152866020838501011115612bc657600080fd5b816020840160208301376000602083830101528093505050509250929050565b60008060408385031215612bf957600080fd5b823591506020830135612c0b81612a27565b809150509250929050565b60048110612c2657612c26612a8e565b9052565b602081016106a28284612c16565b60008083601f840112612c4a57600080fd5b50813567ffffffffffffffff811115612c6257600080fd5b6020830191508360208260051b8501011115612c7d57600080fd5b9250929050565b67ffffffffffffffff8116811461094c57600080fd5b8035612a4b81612c84565b801515811461094c57600080fd5b8035612a4b81612ca5565b600080600080600080600080600060e08a8c031215612cdc57600080fd5b893567ffffffffffffffff80821115612cf457600080fd5b818c0191508c601f830112612d0857600080fd5b813581811115612d1757600080fd5b8d6020828501011115612d2957600080fd5b60209283019b509950908b01359080821115612d4457600080fd5b50612d518c828d01612c38565b90985096505060408a01359450612d6a60608b01612c9a565b9350612d7860808b01612c9a565b9250612d8660a08b01612a3c565b9150612d9460c08b01612cb3565b90509295985092959850929598565b600080600060e08486031215612db857600080fd5b8335612dc381612a27565b9250612dd285602086016129f3565b915060c0840135612de281612a27565b809150509250925092565b60005b83811015612e08578181015183820152602001612df0565b50506000910152565b60008151808452612e29816020860160208601612ded565b601f01601f19169290920160200192915050565b600081518084526020808501808196508360051b8101915082860160005b85811015612eae578284038952815180516001600160a01b031685528581015186860152604090810151606091860182905290612e9a81870183612e11565b9a87019a9550505090840190600101612e5b565b5091979650505050505050565b60006101a0881515835287151560208401528651612ed881612aa4565b8060408501525063ffffffff6020880151166060840152604087015167ffffffffffffffff80821660808601528060608a01511660a08601528060808a01511660c0860152505060a087015160e0840152612f4b6101008401878051825260208082015190830152604090810151910152565b80610160840152612f5e81840186612e3d565b91505082610180830152979650505050505050565b600080600060608486031215612f8857600080fd5b83359250612f9860208501612a3c565b91506040840135612de281612ca5565b634e487b7160e01b600052601160045260246000fd5b818103818111156106a2576106a2612fa8565b80820281158282048414176106a2576106a2612fa8565b600060208284031215612ffa57600080fd5b5051919050565b808201808211156106a2576106a2612fa8565b634e487b7160e01b600052603260045260246000fd5b60008235605e1983360301811261304057600080fd5b9190910192915050565b600181811c9082168061305e57607f821691505b602082108103612a0557634e487b7160e01b600052602260045260246000fd5b601f821115611a7a57600081815260208120601f850160051c810160208610156130a55750805b601f850160051c820191505b818110156116af578281556001016130b1565b81356130cf81612a27565b6001600160a01b03811673ffffffffffffffffffffffffffffffffffffffff1983541617825550600160208084013582840155600283016040850135601e1986360301811261311d57600080fd5b8501803567ffffffffffffffff81111561313657600080fd5b803603848301131561314757600080fd5b61315b81613155855461304a565b8561307e565b6000601f821160018114613191576000831561317957508382018601355b600019600385901b1c1916600184901b1785556131ea565b600085815260209020601f19841690835b828110156131c1578685018901358255938801939089019088016131a2565b50848210156131e05760001960f88660031b161c198885880101351681555b50508683881b0185555b505050505050505050565b8381526001600160a01b0383166020820152606081016132186040830184612c16565b949350505050565b818352818160208501375060006020828401015260006020601f19601f840116840101905092915050565b60006001600160a01b0380881683528087166020840152508460408301526080606083015261327e608083018486613220565b979650505050505050565b60006020828403121561329b57600080fd5b81516107a681612ca5565b63ffffffff8116811461094c57600080fd5b6000602082840312156132ca57600080fd5b81356107a6816132a6565b6000602082840312156132e757600080fd5b81356107a681612c84565b6003811061094c57600080fd5b600081356106a281612c84565b8135613317816132f2565b61332081612aa4565b815460ff821691508160ff198216178355602084013561333f816132a6565b64ffffffff008160081b16905080837fffffffffffffffffffffffffffffffffffffffffffffffffffffff00000000008416171784556040850135613383816132a6565b68ffffffff00000000008160281b16847fffffffffffffffffffffffffffffffffffffffffffffff0000000000000000008516178317178555505050506134116133cf606084016132ff565b82547fffffffffffffffffffffffffffffff0000000000000000ffffffffffffffffff1660489190911b70ffffffffffffffff00000000000000000016178255565b608082013560018201555050565b60006020828403121561343157600080fd5b81356107a6816132f2565b60a0810161344987612aa4565b95815263ffffffff948516602082015292909316604083015267ffffffffffffffff1660608201526080015290565b600067ffffffffffffffff808a1683526020818a1681850152604060a0818601526134a760a086018a8c613220565b606086820381880152818983528483019050848a60051b8401018b60005b8c81101561356957601f198684030184528135605e198f36030181126134ea57600080fd5b8e0180356134f781612a27565b6001600160a01b0316845280890135898501528781013536829003601e1901811261352157600080fd5b0188810190358a81111561353457600080fd5b80360382131561354357600080fd5b86898601526135558786018284613220565b958a019594505050908701906001016134c5565b50508097505050505050505082608083015298975050505050505050565b67ffffffffffffffff818116838216019080821115611ea057611ea0612fa8565b634e487b7160e01b600052601260045260246000fd5b6000826135cd576135cd6135a8565b500690565b6000826135e1576135e16135a8565b500490565b600060001982036135f9576135f9612fa8565b5060010190565b6040810161360e8285612c16565b8260208301529392505050565b8381526060602082015260006136346060830185612e3d565b9050826040830152949350505050565b600080604080848603121561365857600080fd5b835167ffffffffffffffff8082111561367057600080fd5b818601915086601f83011261368457600080fd5b815160208282111561369857613698612ae4565b8160051b6136a7828201612afa565b928352848101820192828101908b8511156136c157600080fd5b83870192505b84831015613736578251868111156136df5760008081fd5b8701603f81018d136136f15760008081fd5b84810151613701612bac82612b2b565b8181528e8b8385010111156137165760008081fd5b613725828883018d8601612ded565b8452505091830191908301906136c7565b9990920151989a9899505050505050505050565b60008251613040818460208701612ded565b6020815260006107a66020830184612e1156fe416464726573733a206c6f772d6c6576656c2064656c65676174652063616c6c206661696c6564a26469706673582212200dcce9efc1d5cb24c7cb47d6c8d3c605731ce282be4e6d7daa19c04ea775b4a764736f6c63430008110033",
  "devdoc": {
    "author": "DAO BOX",
    "errors": {
      "TokenNotContract(address)": [
        {
          "params": {
            "token": "The token address"
          }
        }
      ],
      "TokenNotERC20(address)": [
        {
          "params": {
            "token": "The token address"
          }
        }
      ],
      "WrongHelpersArrayLength(uint256)": [
        {
          "params": {
            "length": "The array length of passed helpers."
          }
        }
      ]
    },
    "kind": "dev",
    "methods": {
      "implementation()": {
        "details": "The implementation can be instantiated via the `new` keyword, cloned via the minimal clones pattern (see [ERC-1167](https://eips.ethereum.org/EIPS/eip-1167)), or proxied via the UUPS pattern (see [ERC-1822](https://eips.ethereum.org/EIPS/eip-1822)).",
        "returns": {
          "_0": "The address of the plugin implementation contract."
        }
      },
      "prepareInstallation(address,bytes)": {
        "params": {
          "_dao": "The address of the installing DAO.",
          "_data": "The bytes-encoded data containing the input parameters for the installation as specified in the plugin's build metadata JSON file."
        },
        "returns": {
          "plugin": "The address of the `Plugin` contract being prepared for installation.",
          "preparedSetupData": "The deployed plugin's relevant data which consists of helpers and permissions."
        }
      },
      "prepareUninstallation(address,(address,address[],bytes))": {
        "params": {
          "_dao": "The address of the uninstalling DAO.",
          "_payload": "The relevant data necessary for the `prepareUninstallation`. see above."
        },
        "returns": {
          "permissions": "The array of multi-targeted permission operations to be applied by the `PluginSetupProcessor` to the uninstalling DAO."
        }
      },
      "prepareUpdate(address,uint16,(address,address[],bytes))": {
        "params": {
          "_currentBuild": "The build number of the plugin to update from.",
          "_dao": "The address of the updating DAO.",
          "_payload": "The relevant data necessary for the `prepareUpdate`. see above."
        },
        "returns": {
          "initData": "The initialization data to be passed to upgradeable contracts when the update is applied in the `PluginSetupProcessor`.",
          "preparedSetupData": "The deployed plugin's relevant data which consists of helpers and permissions."
        }
      },
      "supportsInterface(bytes4)": {
        "params": {
          "_interfaceId": "The ID of the interface."
        },
        "returns": {
          "_0": "Returns `true` if the interface is supported."
        }
      }
    },
    "title": "LensVotingSetup",
    "version": 1
  },
  "userdoc": {
    "errors": {
      "TokenNotContract(address)": [
        {
          "notice": "Thrown if token address is passed which is not a token."
        }
      ],
      "TokenNotERC20(address)": [
        {
          "notice": "Thrown if token address is not ERC20."
        }
      ],
      "WrongHelpersArrayLength(uint256)": [
        {
          "notice": "Thrown if passed helpers array is of worng length."
        }
      ]
    },
    "kind": "user",
    "methods": {
      "constructor": {
        "notice": "The contract constructor, that deployes the bases."
      },
      "implementation()": {
        "notice": "Returns the plugin implementation address."
      },
      "prepareInstallation(address,bytes)": {
        "notice": "Prepares the installation of a plugin."
      },
      "prepareUninstallation(address,(address,address[],bytes))": {
        "notice": "Prepares the uninstallation of a plugin."
      },
      "prepareUpdate(address,uint16,(address,address[],bytes))": {
        "notice": "Prepares the update of a plugin."
      },
      "supportsInterface(bytes4)": {
        "notice": "Checks if this or the parent contract supports an interface by its ID."
      }
    },
    "notice": "The setup contract of the `LensVotingPlugin` contract.",
    "version": 1
  },
  "storageLayout": {
    "storage": [],
    "types": null
  }
}